{
  "contractName": "UserRegistration",
  "abi": [
    {
      "anonymous": false,
      "inputs": [
        {
          "indexed": true,
          "internalType": "address",
          "name": "user",
          "type": "address"
        }
      ],
      "name": "UserRegistered",
      "type": "event"
    },
    {
      "inputs": [
        {
          "internalType": "address",
          "name": "",
          "type": "address"
        }
      ],
      "name": "registeredUsers",
      "outputs": [
        {
          "internalType": "bool",
          "name": "",
          "type": "bool"
        }
      ],
      "stateMutability": "view",
      "type": "function",
      "constant": true
    },
    {
      "inputs": [],
      "name": "registerUser",
      "outputs": [],
      "stateMutability": "nonpayable",
      "type": "function"
    },
    {
      "inputs": [
        {
          "internalType": "address",
          "name": "user",
          "type": "address"
        }
      ],
      "name": "isUserRegistered",
      "outputs": [
        {
          "internalType": "bool",
          "name": "",
          "type": "bool"
        }
      ],
      "stateMutability": "view",
      "type": "function",
      "constant": true
    }
  ],
  "bytecode": "0x608060405234801561001057600080fd5b506101e0806100206000396000f3fe608060405234801561001057600080fd5b50600436106100415760003560e01c80630e50cee514610046578063163f75221461006f5780634d3820eb14610082575b600080fd5b61005961005436600461013a565b61008c565b6040516100669190610168565b60405180910390f35b61005961007d36600461013a565b6100a1565b61008a6100bf565b005b60006020819052908152604090205460ff1681565b6001600160a01b031660009081526020819052604090205460ff1690565b3360009081526020819052604090205460ff16156100f85760405162461bcd60e51b81526004016100ef90610173565b60405180910390fd5b33600081815260208190526040808220805460ff19166001179055517f54db7a5cb4735e1aac1f53db512d3390390bb6637bd30ad4bf9fc98667d9b9b99190a2565b60006020828403121561014b578081fd5b81356001600160a01b0381168114610161578182fd5b9392505050565b901515815260200190565b6020808252601a908201527f5573657220697320616c7265616479207265676973746572656400000000000060408201526060019056fea264697066735822122011587924aceeba3f95e411bd0c24e77bed13fafe73643b8647c526f9ff50ff2064736f6c63430008000033",
  "immutableReferences": {},
  "source": "// SPDX-License-Identifier: MIT\r\npragma solidity ^0.8.0;\r\n\r\ncontract UserRegistration {\r\n    mapping(address => bool) public registeredUsers;\r\n\r\n    event UserRegistered(address indexed user);\r\n\r\n    modifier notRegistered() {\r\n        require(!registeredUsers[msg.sender], \"User is already registered\");\r\n        _;\r\n    }\r\n\r\n    function registerUser() external notRegistered {\r\n        registeredUsers[msg.sender] = true;\r\n        emit UserRegistered(msg.sender);\r\n    }\r\n\r\n    function isUserRegistered(address user) external view returns (bool) {\r\n        return registeredUsers[user];\r\n    }\r\n}\r\n",
  "sourcePath": "C:\\Users\\klred\\projects\\react\\blockchain-authentication\\contracts\\UserAuth.sol",
  "compiler": {
    "name": "solc",
    "version": "0.8.0+commit.c7dfd78e.Emscripten.clang"
  },
  "schemaVersion": "3.4.16",
  "updatedAt": "2023-12-04T14:30:52.327Z",
  "networkType": "ethereum",
  "devdoc": {
    "kind": "dev",
    "methods": {},
    "version": 1
  },
  "userdoc": {
    "kind": "user",
    "methods": {},
    "version": 1
  }
}